:100000000C945D000C9485000C9485000C94850084
:100010000C9485000C9485000C9485000C9485004C
:100020000C9485000C9485000C9485000C9485003C
:100030000C9485000C9485000C9485000C9485002C
:100040000C9488020C9485000C94F8020C94D20253
:100050000C9485000C9485000C9485000C9485000C
:100060000C9485000C94850000000008000201003B
:100070000003040700000000000000000000000072
:10008000250028002B0000000000240027002A0083
:10009000040404040404040402020202020203032E
:1000A0000303030301020408102040800102040836
:1000B00010200102040810200C0411241FBECFEFF1
:1000C000D8E0DEBFCDBF11E0A0E0B1E0E2E8F8E0AB
:1000D00002C005900D92A638B107D9F722E0A6E834
:1000E000B1E001C01D92AC32B207E1F710E0CDE5FE
:1000F000D0E004C02197FE010E943904CC35D1071D
:10010000C9F70E942A030C943F040C94000090E06D
:10011000FC01EC55FF4F249180579F4FFC018491C7
:10012000882399F090E0880F991FFC01EA57FF4F50
:10013000A591B491FC01E458FF4F859194918FB73C
:10014000F894EC91E22BEC938FBF08957F928F92FD
:100150009F92AF92BF92CF92DF92EF92FF920F9356
:100160001F93CF93DF93782EE12C32E0F32E47E0FC
:10017000A42EB12C5BE3C52E5FE1D52E50E040E00C
:10018000E501C41BD50B6130710509F4EA01072DA7
:10019000192F23E0CC0FDD1F2A95E1F7B0E0A0E096
:1001A000F801219131918F013327F901E859FF4F6F
:1001B0008491F901EC55FF4F949020573F4FF9017E
:1001C0002491222329F1FE01EA0FFB1FEE5DFE4F71
:1001D0008080882359F0833009F446C008F039C084
:1001E000813009F447C0823009F448C0E22FF0E0C2
:1001F000EE0FFF1FE458FF4F259134918FB7F8940D
:10020000F901811048C080809094982090828FBF1F
:100210001296A830B10509F0C3CFF6013197F1F776
:100220004F5F5F4F4830510509F0AACFF1E0EF1A58
:10023000F10809F0A3CFDF91CF911F910F91FF90AB
:10024000EF90DF90CF90BF90AF909F908F907F9076
:1002500008958730B1F08830D1F0843009F0C6CFEE
:10026000309180003F7D03C0309180003F77309314
:100270008000BCCF34B53F7734BDB8CF34B53F7DB7
:10028000FBCF3091B0003F773093B000AFCF3091CB
:10029000B0003F7DF9CF80809828B8CF3FB7F89461
:1002A00080918B0190918C01A0918D01B0918E0174
:1002B00026B5A89B05C02F3F19F00196A11DB11DC1
:1002C0003FBFBA2FA92F982F8827BC01CD01620FFD
:1002D000711D811D911D42E0660F771F881F991FB8
:1002E0004A95D1F70895AF92BF92CF92DF92EF92E5
:1002F000FF920F931F93CF93DF936C017B018B01D0
:10030000040F151FEB015E01AE18BF08C017D1071F
:1003100059F06991D601ED91FC910190F081E02DA9
:10032000C6010995892B79F7C501DF91CF911F91FE
:100330000F91FF90EF90DF90CF90BF90AF90089516
:10034000FC01538D448D252F30E0842F90E0821BDB
:10035000930B541710F0CF96089501970895FC0160
:10036000918D828D981761F0A28DAE0FBF2FB11DB8
:100370005D968C91928D9F5F9F73928F90E0089510
:100380008FEF9FEF0895FC01918D828D981731F0CA
:10039000828DE80FF11D858D90E008958FEF9FEF1E
:1003A0000895FC01918D228D892F90E0805C9F4FF4
:1003B000821B91098F73992708958FE891E00E941D
:1003C000D10121E0892B09F420E0822F089580E0FB
:1003D00090E0892B29F00E94DD0181110C9400002E
:1003E0000895FC01A48DA80FB92FB11DA35ABF4FCA
:1003F0002C91848D90E001968F739927848FA68924
:10040000B7892C93A089B1898C91837080648C9377
:10041000938D848D981306C00288F389E02D808126
:100420008F7D80830895EF92FF920F931F93CF9358
:10043000DF93EC0181E0888F9B8D8C8D98131AC01F
:10044000E889F989808185FF15C09FB7F894EE8906
:10045000FF896083E889F989808183708064808363
:100460009FBF81E090E0DF91CF911F910F91FF90AE
:10047000EF900895F62E0B8D10E00F5F1F4F0F7356
:100480001127E02E8C8D8E110CC00FB607FCFACF11
:10049000E889F989808185FFF5CFCE010E94F101BD
:1004A000F1CFEB8DEC0FFD2FF11DE35AFF4FF082E2
:1004B0009FB7F8940B8FEA89FB8980818062CFCF48
:1004C000CF93DF93EC01888D8823B9F0AA89BB898B
:1004D000E889F9898C9185FD03C0808186FD0DC076
:1004E0000FB607FCF7CF8C9185FFF2CF808185FF97
:1004F000EDCFCE010E94F101E9CFDF91CF910895B8
:1005000042E050E062E671E08FE891E00C94730104
:100510001F920F920FB60F9211242F933F938F9338
:100520009F93AF93BF938091870190918801A09191
:100530008901B0918A013091860123E0230F2D3784
:1005400058F50196A11DB11D209386018093870166
:1005500090938801A0938901B0938A0180918B01C7
:1005600090918C01A0918D01B0918E010196A11DF9
:10057000B11D80938B0190938C01A0938D01B0935A
:100580008E01BF91AF919F918F913F912F910F90CD
:100590000FBE0F901F90189526E8230F0296A11DFD
:1005A000B11DD2CF1F920F920FB60F9211242F932D
:1005B0003F934F935F936F937F938F939F93AF93EB
:1005C000BF93EF93FF938FE891E00E94F101FF91B9
:1005D000EF91BF91AF919F918F917F916F915F91BB
:1005E0004F913F912F910F900FBE0F901F90189534
:1005F0001F920F920FB60F9211242F938F939F93F8
:10060000EF93FF93E0919F01F091A0018081E09131
:10061000A501F091A60182FD1BC090818091A801E7
:100620008F5F8F732091A901821741F0E091A8019B
:10063000F0E0E157FE4F958F8093A801FF91EF9175
:100640009F918F912F910F900FBE0F901F90189533
:100650008081F4CF789484B5826084BD84B5816054
:1006600084BD85B5826085BD85B5816085BD80917D
:100670006E00816080936E001092810080918100F5
:1006800082608093810080918100816080938100ED
:10069000809180008160809380008091B1008460AF
:1006A0008093B1008091B00081608093B000809110
:1006B0007A00846080937A0080917A0082608093CF
:1006C0007A0080917A00816080937A0080917A002C
:1006D000806880937A001092C1008DE00E948700AC
:1006E00087E00E9487008CE00E94870086E00E94DD
:1006F00087008BE00E94870085E00E9487008AE0E7
:100700000E94870084E00E948700E0919F01F091A1
:10071000A00182E08083E0919B01F0919C01108216
:10072000E0919D01F0919E018FEC80831092A701D2
:10073000E091A301F091A40186E08083E091A10102
:10074000F091A201808180618083E091A101F0910C
:10075000A201808188608083E091A101F091A201D3
:10076000808180688083E091A101F091A201808165
:100770008F7D8083C0E0D0E04FE050E065E671E01F
:100780008FE891E00E9473010E94800261E070E0B6
:100790008AE191E00E94A60040E150E065E771E047
:1007A0008FE891E00E9473010E9480026FEF7FEF5B
:1007B00082E191E00E94A6000E944E014B015C0183
:1007C00088EEC82E83E0D82EE12CF12C0E944E0139
:1007D000681979098A099B09683E7340810591056A
:1007E000A8F321E0C21AD108E108F10888EE880ECA
:1007F00083E0981EA11CB11CC114D104E104F104D2
:1008000029F7209709F4B8CF0E94DD01882309F465
:10081000B3CF0E940000B0CFEFE8F1E01382128264
:1008200088EE93E0A0E0B0E084839583A683B7834D
:1008300084E091E09183808385EC90E095878487C4
:1008400084EC90E09787868780EC90E0918B808B9A
:1008500081EC90E0938B828B82EC90E0958B848B83
:1008600086EC90E0978B868B118E128E138E148EF1
:100870000895EE0FFF1F0590F491E02D0994F89470
:02088000FFCFA8
:100882000000000013027301A0016002D101AF0158
:10089200C30107000600050004000D000C000B0058
:1008A2000A00010000000000000001000100000039
:1008B2000000000001000000000000000100010033
:1008C2000000000000000100000000000000010024
:1008D2000100000000000000010001000000000013
:1008E20001000D0A004D6F746F72203120466F7245
:1008F20077617264004D6F746F72203220426163BF
:060902006B7761726400D6
:00000001FF
